:020000040000FA
:80000000FFFFFFFFFFFFFFFFFFFFFFFFFFFFFFFF6ADEFF4000E86215006ADEFF4000E86215006ADEFF4000E862150000FFFFFFFFFFFFFFFFFFFFFFFFFFFFFFFFFFFFFFFFFFFFFFFFFFFFFFFFFFFFFFFFFFFFFFFFFFFFFFFF4455544455415333355377355767255736355322255222255323255323318551111551111551111551111551B9
:80008000111551111551111551111551111551111551111551111551111551111551111551111551111551111551111551111551111551111551111551111551111551111551111551111551111551111551111551111551111551111551111551111551111551111551111551111551111551111551111551111551111551111551111554
:8001000051111100000000000000000000000000000000000000000000000000000000000000000000000000000000000000000000000000000000000000000000000000000000000000000000000000000000000000000000000000000000000000000000000000000000000000000000000000000000000000000000000000000000000C
:8001800000000000000000000000000000000000000000000000000080A1111AA1111200000000000080A111120000000000000000000000000000000000000080A1111AA1111280A111120000000000000000000000000080A1111AA111120000C0844F48F884844F48388480A8888AA1111200000000000000000000000080A8888AA839
:80020000888200000000C0122F21F112122F21311240522221C02FFFF2F22F4DDFD4344D80A8888AA88882000080A8888AA8888AA88882000000C0844F48F884844F4838840000004054444D166F61F116122F2171125444455222214054444554444100004054444554444554444100000000405222255222210000C08CCFC8F88C9CCF21
:80028000C9B99CA1111E8CCFC8388C000040522225522221004052222552222552222100000040588885588881000000C08CCFC8F88C9EEFE9F99E122F21311240522221C08CCFC8F88C8CCFC8388C0000C08CCFC8F88C8CCFC8F88C8CCFC8388C00000080A4444AA5555AA111120000C0CCCFCCFCCCCEEFEC7CCE52222558888D122F2169
:800300003112C0C44F4CFCC4C44F4C3CC40000C0C44F4CFCC4C44F4CFCC4C44F4C3CC4000000C0888F88F888988F89B998A111120000C0C44F4CFCC4D66F6DFDD6122F21F112488F84B448A11112C0844F48F884966F69F996122F21311200C0966F69F996966F69F996966F69399600000080A8888AA88882000000C0CCCFCCFCCCDEEF7F
:80038000EDFDDE122F2131120000C0CCCFCCFCCCDEEFEDFDDE122F21311200C0DEEFEDFDDEDEEFEDFDDEDEEFED3DDE000000000000000000C0CCCFCCFCCCDEEFEDFDDE122F21311240522221C0CCCFCCFCCCDCCFCDBDDCA1111200C0DCCFCDFDDCDCCFCDFDDCDCCFCD3DDC0000000080A2222AA222220000C0CCCFCCFCCCCEEFEC7CCE526B
:80040000222558888D222F223222C0C44F4CFCC4C44F4C3CC40000C0C44F4CFCC4C44F4CFCC4C44F4C3CC400000040544445544441000000C0C88F8CFCC8EAAFAEFEEA222F22F2228CCFC8F88C222F22322280A4444AA44442000080A4444AA4444AA4444200000080ACCCCAAEEEEAA22222C0711F17F771455F5434450000405CCCCD2E2A
:80048000EFE2F22E222F22F222444F44F444222F223222C0888F88F888A88F8ABAA8A2222200C0A88F8AFAA8A88F8AFAA8A88F8A3AA800000000C0233F32F223233F3232230000C0CCCFCCFCCCEEEFEEFEEE222F22722254444100C0C88F8CFCC8EBBFBEFEEB233F32322300C0EBBFBEFEEBEBBFBEFEEBEBBFBE3EEB000000C0888F88F8DA
:8005000088999F99F999111F1131110000C0CCCFCCFCCCEEEFEEFEEE222F223222C0122F213112C0CCCFCCFCCCEDDFDEFEED211F12322100C0EDDFDEFEEDEDDFDEFEEDEDDFDE3EED0000004058888D188F81B118A111120000C0CCCFCCFCCCFFFFFFFFFF333F33F333888F88388800C04CCFC4F44C7FFFF7F77F333F33333300C07FFFF7D3
:80058000F77F7FFFF7F77F7FFFF7377F000000C0888F88F888899F9878895111110000C0444F44F444766F67F776322F237332588889A33332C0C44F4CFCC4C77F7C7CC753333100C0C77F7CFCC7C77F7CFCC7C77F7C3CC7000000000000000000C0CCCFCCFCCCFFFFFFFFFF333F33333380A22222C0CCCFCCFCCCDFFFFDFDDF133F31315B
:800600001300C0DFFFFDFDDFDFFFFDFDDFDFFFFD3DDF000000000000000000C0CCCFCCFCCCFFFFFFFFFF333F33733354444100C0C88F8CFCC8FBBFBFFFFB333F33333300C0FBBFBFFFFBFBBFBFFFFBFBBFBF3FFB000000000000000000C0CCCFCCFCCCFFFFFFFFFF333F33733354444100C0C88F8CFCC8FBBFBFFFFB333F33333300C0FB48
:80068000BFBFFFFBFBBFBFFFFBFBBFBF3FFB0000004054444D244F42B224A222220000C0C88F8CFCC8DBBFBDFDDB133F317113544449A22222C0C88F8CFCC8DBBFBDFDDB133F31311300C0DBBFBDFDDBDBBFBDFDDBDBBFBD3DDB00000000405222255222210000C0CCCFCCFCCCFDDFDFFFFD311F137331544445522221C0C88F8CFCC8F98B
:800700009F9FFFF9311F13333100C0F99F9FFFF9F99F9FFFF9F99F9FFFF9B22F2BFBB2B55F5B3BB500000000000000000000C0CCCFCCFCCCFFFFFFFFFF333F33B333A44446533331C08CCFC8F88CBCCFCBBBBCA3333200C0BCCFCBFBBCBCCFCBFBBCBCCFCB3BBC00000080A8888E811F1878815111110000C0CCCFCCFCCCFEEFEFFFFE32FE
:800780002F23B332A4444200C08CCFC8F88CBFFFFBFBBF333F33333300C0BFFFFBFBBFBFFFFBFBBFBFFFFB3BBF00000080A8888E811F1878815111110000C0CCCFCCFCCCFEEFEFFFFE322F23733258888100C0C44F4CFCC4F66F6FFFF6322F23333200C0F66F6FFFF6F66F6FFFF6F66F6F3FF600000000C0111F11F111111F113111000034
:80080000C0CCCFCCFCCCEEEFEEFEEE222F227222588889A33332C0C44F4CFCC4C66F6C7CC652222100C0C66F6CFCC6C66F6CFCC6C66F6C3CC60000000080A1111AA111120000C0CCCFCCFCCCFFFFFFFFFF333F33333380A33332C0CCCFCCFCCCDFFFFDFDDF133F31311300C0DFFFFDFDDFDFFFFDFDDFDFFFFD3DDF00000080A4444AA44421
:8008800042000000C0CCCFCCFCCCFFFFFFFFFF333F3333330000C0CCCFCCFCCCFFFFFFFFFF333F33333300C0FFFFFFFFFFFFFFFFFFFFFFFFFF3FFF00000080A4444AA44442000000C08CCFC8F88CBFFFFBFBBF333F33B333A4444200C08CCFC8F88CBFFFFBFBBF333F33333300C0BFFFFBFBBFBFFFFBFBBFBFFFFB3BBF0000000080A222EE
:800900002AA222220000C0CCCFCCFCCCFFFFFFFFFF333F33333380A22222C0CCCFCCFCCCFFFFFFFFFF333F33333300C0FFFFFFFFFFFFFFFFFFFFFFFFFF3FFF0000000080A2222AA222220000C0CCCFCCFCCCFFFFFFFFFF333F33333380A22222C0CCCFCCFCCCFFFFFFFFFF333F33333300C0FFFFFFFFFFFFFFFFFFFFFFFFFF3FFF00000091
:8009800080A8888AA88882000000C04CCFC4F44C7FFFF7F77F333F33B333A8888AA11112C0A11F1AFAA1C66F6C3CC6C04CCFC4F44C6FFFF6F66F233F32322300C06FFFF6F66F6FFFF6F66F6FFFF6366F0000004054444D144F41B114A111120000C0C88F8CFCC8EBBFBEFEEB233F327223544449A11112C0C88F8CFCC8EBBFBEFEEB233F82
:800A000032322300C0EBBFBEFEEBEBBFBEFEEBEBBFBE3EEB00000000405333355333310000C0CCCFCCFCCCFCCFCFBFFCA3333AA4444200C08CCFC8F88CBFFFFBFBBF333F33333300C0BFFFFBFBBFBFFFFBFBBFBFFFFB3BBF000000000000000000C0CCCFCCFCCCFFFFFFFFFF333F33333380A22222C0CCCFCCFCCCDFFFFDFDDF133F3131D9
:800A80001300C0DFFFFDFDDFDFFFFDFDDFDFFFFD3DDF00000000C0122F21F112122F2131120000C0CCCFCCFCCCEDDFDEFEED211F127221588889A33332C0C44F4CFCC4C77F7C7CC753333100C0C77F7CFCC7C77F7CFCC7C77F7C3CC700000080A4444E722F27F772322F2333320000C0CCCFCCFCCCFDDFDFFFFD311F13F331444F44B44424
:800B0000A33332C0C88F8CFCC8FBBFBFFFFB333F33333300C0FBBFBFFFFBFBBFBFFFFBFBBFBF3FFB000000C0444F44F444766F67F776322F2333320000C0C88F8CFCC8C99F9C7CC951111D444F44F444322F233332C0C88F8CFCC8C99F9C7CC951111100C0C99F9CFCC9C99F9CFCC9C99F9C3CC900000000C0333F33F333333F3333330083
:800B800000C0CCCFCCFCCCEDDFDEFEED211F12F221444F44B444A11112C0888F88F888ABBFBAFAAB233F32322300C0ABBFBAFAABABBFBAFAABABBFBA3AAB000000405444455777755333310000C0C88F8CFCC8F88F8FBFF8A3333E444F44344400C0888F88F888B88F8BBBB8A3333200C0B88F8BFBB8B88F8BFBB8B88F8B3BB80000000024
:800C0000405333355333310000C0CCCFCCFCCCFCCFCFBFFCA3333ECCCFCC3CCC0000C0333F33F333333F33333300C0333F33F333333F33F333333F33333300000080ACCCCAADDDDAA11112C0288F82F228EEEFEE3EEE0000C04CCFC4F44C7DDFD7F77D311F13F3314CCFC4F44C211F12322180ACCCCAADDDDAA111120080ADDDDAADDDDA0D
:800C8000ADDDD200000080A4444AA44442000000C0844F48F884B44F4BBBB4A3333E444F44F444311F13333100000000000000000000000080A4444AA7777AA333320000C0444F44F444444F4434444054444D311F13333180A4444AA44442000080A4444AA4444AA444420000000000000000000000000000000000000000000000000078
:800D0000000000000000000000000000000000000000000000000000000000000000000000000000000000000000000000000000000000000000000000000000000000000000000000000000000000000000000000000000000000000000000000000000000000000000000000000000000000000000000000000000000000000000000073
:800D80000000000000000000000000000000C0F22F2FBFF2A22222000000000024000000000000000000002400148001000000000014000000000000000000000000000000000000000000000000000000000000000000F0DF1400000012002002000000000021000000000000000010240100004100000020010000200100004112000018
:800E000082200100000000000000000000100200000000000000C095B30300000000000000000000000000000000000000000000000000000000000000000000000000000000000000000000000000000000000000000070540400002001002221000000000021000000001002100112004112000010041100002001000020010000411223
:800E8000000082200100000000000000000000100200000000000000C01EB302000000000000000000000000000000000000000000000000000000000000000000000000000000000000000000000000000000000000000000705404200121200200420010012004201201200400001242002200002120020010022200000022114120141B
:800F000002200820140222820010022210041002221004420022824120140220082004008241002120221804422D21530C00000000000000000000000000000000000000000000000000000000000000000000000000000000000000000000000000000000000000000070540400000000000000000000000000000000000000000000003B
:800F800000000000000000000000000000000000000000000000000000000000000000000000C05441000080012480020000000000240014001424001480010000441800001444800480048001004001180000144418000088800100000000000000000000400200000000000000009F3D070010020000420022002004200200422100001D
:8010000020140210010000000000000000001001124200308100000013081200000000000000000082000000820000000000000000C034C342022800184824804201800480420180440240011848248042011840022840840124804241044800281444184824001C0818482480C28144184002288844184002284004481812288844A0411B
:801080002400881A014824008844002480A2914480440228B07A050000200121200200000000002100110010021001120000102401001011044200002001001001120000114112000082200100000000000000000000100200000000000000C0D7730B000000000000000000000000000000000000000000000000000000000000000000E0
:8011000000000000000000000000000000000000000000000000000070540400000010020000000000000010010000002001000041410000101404000000000000000000410000200812000000002001000000000010022001000000000000D883070000181240020000000000000000000000001200008021010014140000000000000040
:8011800012180000100400008280010000000000000000000040020020010000000000CA02000000000000000000000000000000000000000000000000000000000000000000400400000000000000000000000000000000000000000000005C3EA900000000240000000000000000000000000000008001000014000000000000008001BE
:80120000000000000000180000000000000000000000240000000000000000CF4D060000002400000000000000000000000080010000000000004100000000000000000000000000820000000000000000000000000000000000000000C08423020000180000000000000000000000000000000000410000111004000000000000120000AF
:8012800000000000000000000000000000000000240012000000000000006FA60D00000000000000000000000000000000000000440000000000000000000000000040040000000000000000000000000000000000000000000000C0146309000080010000000000000000000000000000000000000000000000000000000000000000004D
:80130000881200000000000000000000000000000000000000005F8E020000000000000000000000400100000000180000001800000000000000000000000000000000000000000080010000000000000000001200000000007C3BE60000110000000000000000000000000000000000000000000000002009000000000000000000000009
:801380000000200100000000000000002002000012000000E06305000000180040021200000000000000000000000000000018100400004100000000000014000000200100000041008001000000000000000000000000002400CC343300001400000021180000000000000000000000000000002041040000440000000000000000000033
:80140000180000004004800118000000000000000000000012000000F03CD5000000800100000000000000000000000000000000000000000000009200000000400100000000000000000000000000000000000022000000000021C048B30B0000801102002800000021002001400400001100000000800100001642040000001240010085
:801480000000001024010088200100002011820100002001000000000000A011001A0100002D8E00000000000000000000000000000000000000000000410000000000000000000000000000000000000000000000000000000000000000000000C0B1220000000000000000000000000000000000000010040000000000000010010000B9
:80150000000000000000000000410000000000000000000000000000000000F092BB000000000000000000000000000000200100000000000000001200000000800800001800000000000000000000000000000000000010020000000044002C32780000000000000000000000000000000000000040040000008001000000140000000015
:801580000000000000000010040000000000000000000000000000001004E08C0F0000000000000000000000000000800100000000000000000000000000008200001800000000000000000000000000000000000024000000000000C07A930E0000000000000000000000000000000000000000000000000000000000000000000000002E
:80160000000000000000000000000000000000002001000000006F79090000000000000000000000000000000000000000000000000000000000000000000000000000000000000000000000000000000000140000000054830F0000000000000000000000000000000000000000000000000000000000000000000000000000000000005E
:8016800000000000000000000000000000000070540400000000000000000000000000000000000000000000000000000000000000000000000000000000000000000000000000000000001211000000C0C17305000000000000000000000000000000000000000000000000000000000000220000000000000000000000000000000000E4
:80170000000000000000000000002FD4060000000000000000004200000000000000000000002002000000004400000000000020010000000000000000000000000000000000000000120000006C33FD0000100200000000000000000000000000000000000000000000000000000000000000000000002100800200000000000000210013
:801780000040020000000000F0715700000000000000000000000000000000000000000000000000000041000000200200200100000000240000220000000000000000000010020000000000FC3CB8000010020000000000800400000000000000000000002800000000000000000000000000000000000000000000000000000021000044
:8018000000000012000000B0F20C000000000000000000000000000000000000000000000000000000000000000000000000000000000000000000000000000000000000000000C054410000000000000000000000000000000000000000000000000000000000000000000000000000000000000000000000000000000000000000000053
:801880004745000000000000000000000000000000000000000000000000000000000000000000000000000000000000000000000000000000000000000000004C15040000000000000000000000000000000000000000000000000000000000000000000000000000000000000000000000000000000000000000007054840800000000A7
:8019000000000000000000000000000000000000000000000000000000000000000000000000000000000000000000000000000000000000001D26F30D000000000000000000000000000000000000000000000000000000000000000000000000000000000000000000000000000000000000400100005EF800000000000000000000008D
:8019800000000000000000000000000000000000000000000000000000000000000000000000000000000000000000000000004C150400000000000000000000000000000000000000000000000000000000000000000000000000000000000000000000000000000000000000000070548408002002000000002004001100000082200138
:801A00002100000000221004000000200400110000008220012100000000221004000000200400110000008220012100000000221004001D6C830D82000000000000000000000000000000000000000000000000000000000000000000000000000000000000000000000000000000000000000014F0BF61000000000000000000000000F2
:801A8000000000000000000000000000000000000000000000000000000000000000000000000000000000000000000000004C150400000000000000000000000000000000000000000000000000000000000000000000000000000000000000000000000000000000000000000070540400000000000000000000000000000000000000B9
:801B00000000000000000000000000000000000000000000000000000000000000000000000000001001009C359400000000000000000000000000000000000000000000000000000000000000000000000000000000000000000000000000000000000000140000E0850F00282220020000004842204411011100802888214932121002FA
:801B800000002822444302410000802404421411100100888218922423012100008022423424100400004842204411011100802888214932121002000028224447121004118C318E00800200000000800400140000008880012400000000284004000000800400140000008880012400000000284004000000800400140000008880012443
:801C00000000000028400400002F620A0020820200000000424800111400002088288111420200000022284144000000208404104101000082881218212400000020821244040000004248001114000020882881114202000000222851440011DC2705000000000000000000000000000000000000000000000000000000000000000000D9
:801C8000000000000000000000000000000000000000000000001100005DC188000000000000000000000000000000000000000000000000000000000000000000000000000000000000000000000000000000000000000000C0E7F391212B41282F11042F1124F21241222F11A4822D412AC9412E92142E9246E12229E42239412CB9418A
:801D0000C2921F44C2121F4462281F4422F9412423D941B292D441B292C4242F1944F49241222F1934242F11B424D812B424C9414F2249F1249246F12492424F2239414D921B242CF941242CF1412486F24124921F4432921D242B491D242B494CF29241442F1924F2924143F212414B822D414B921CF42492144F2269144F2229F4249276
:801D800013D424B941C2921F44C2121F4462281F4422F9412423D941B292D441B292C4242B49442B49222B4943B212B424F8645E142E12422E1213E622B141C2121B242CB14162281B24921B2423BD41B29294213B4919F29241F09241222F1934A42F19B434F812416B922D414F2249F1249246F12492424F2239614F22B945D224F94117
:801E0000242CF1412486F24124921F4432D21F44B292D441B293D441F29241442F1924F2924143FA92414B832F11B426D912F42492144F2269144F2229F4249213F624925B244D921F44C2121F4462281F4422F9412423FD41242B491D243B491D242F1944F49241222F1934A42F19B434F812416B922D414F2249F1249246F12492424F46
:801E80002229F624924B244D924E242CE144E28835FB00002800000000004800400100008008184002000000800244000000004800C01100000088800124000000002840040000008044044001000080081840020000008002440014705B83080000000000000000000000000000000000000000000000000000000000000000000000001A
:801F00000000000000000000000000000000000000000000007C3E1F2008000000000000000000000000000000000000000000000000000000000000000000000000000000000000000000000000000000000014000014B0BD0E002800000000004800400100008008184002000000800244000000004800400100008008184002000000F9
:801F80008002440000000048004001000080081840020000008002440000116C322200000000000000000000000000000000000000000000000000000000000000000000000000000000000000000000000000000000000040010000F05685000000000000000000000000000000000000000000000000000000000000000000000000000D
:80200000000000000000000000000000000000000000002400C0D5D30D00000000000000000000000000000000000000000000008001000000000000000000000000000000000000000000000000000021000000000000F08D8400000000000000000000000000000000000000000000000000000000000000000000000000000000000024
:8020800000000000000000000010020000000000C0AB13040000000000000000000000000000000000000000000000200100000000000018000000000000000000000000000000000000000000000000400200176A00000000000000000000000000000000000000000000000000000000000000000000000000000000000000002100002F
:802100000000000000000000000000C02A2308000000000000000000000000000000000000000000000000000000000000000000000000000000000000000000000000000000000000000000705404000000000000000000000000000000000000000000000000000000000000000000000000000000000000000000000000000000000082
:8021800000000000C0544100000000000000000000000000000000000000000000000000000000000000000000000000000000000000400200000000000000000000000000F02A8200000000000000000000000000000000000000000000000000000000000000200100000000000000000000000000000000000000000000000000D0219A
:80220000389F0000000000000000000000000000000000000000000000000000000000000000000000000000000000000000000000000000000000000000000047450000000000000000000000000000000000000000000000180080010018000000002001000000000000000000000000000000000000000000000000005C3BDF000000B3
:8022800000000000000000000000000000000000000000000000000000000000000000000000000000000000000000000000000000000000000040F195C400000000000000000000000000000000000000000000000000000000000080010000000000000000000000000000000000000000000000000000C0DF3282000000000000000080
:8023000000000000000000000000000000000000000000000000000000000000000000000000000000000000000000000000000000F0E71F00000000000000000000000000000000000000000000000000000000000000001A01000000000000000000000000000000000000000000000000005C34D50000000000000000000000000000E7
:8023800000000000000000000000180080010012001200000018000000000000000000000000000000000000000000000000F044730000000000000000000000000000000000000000000000000000000000000018000000000000000000000000000000000000000000000000000011EC31CA8200800200000000800400140000008880AD
:802400000124000000002840040000008004001400000088800124000000002840040000008004001400000088800124000000002840040014CF860D8800000000000000000000000000000000000000000000180000000000120000001800000000000000000000000000000000000000000000000000119C39290000000000000000001A
:80248000000000000000000000000000000000182001000000800120010000000000000000000000000000000000000000000000000014F0A64C0000000000000000000000000000000000000000000000000000208101000080010080010000000000000000000000000000000000000000000000006C3C7400000000000000000000004B
:802500000000000000000000000000001880011880011880011800000000000000000000000000000000000000000000000000000000F0CC5D0000000000000000000000000000000000000000000000181880A1111880A1111880A111120000208121010000000000000000000000000000000000000000000000C0AC8303002A0228004E
:802580000000004A04485011400100A088A091D02201240000002A024D2440040012121AA155121AA4111F112161111AA1111A018A081A0925A211240000002A024D2440040000A044800415011400008A081A092D1240020000A022D044024400F0356B000022000000000042001001000020081210020000002002410000208121212462
:8026000081211121812101181282200121181200000022100400000020040011000000822001210000000022100400C0ABF30A00282002000000800442400111000088A0186021100200008002260441008001A0511842E0118111011A011A81088A01241A1102000080022604410000004820041410010080088A011602210000002860A0
:8026800042100400CB9600000000000000000000000000000000000000000000000000000000000000000020010000000000000000000000000000000000000000000000C0E2832508000000000000000000000000000000000000000000000000000000000000000000000000000000000000000000000000000000000000000040F12659
:80270000DF142E12422E1213C4121B242CB141C2121B2486B24122B941329219B29294212B49282F19042F1924F2924143F212414B822D414B921CF42492144F2269144F2229F4249213D424B941C2921F44C2121F4462281F4422F9412423D941B292D441B292C4242F1944F49241222F1935242F11B424D812B424C9414F2249F124929E
:8027800046F12492424F2239414D921B242CF941242CF1412486F24124921F4432921D242B491D242B494CF29241442F1924F2924143F212414B822D414B921CF42492144F2269144F2229F42492424D924AC2924E242CE14462389397212B41282F1186F21241222F1124F212412AD812A4921CE422CD412E9246E13269142E9213C49259
:802800001B242CF941A42CF941348E121F6462291F4432921D242B491D242B494CF292614CF2924526F4924143F212414B822D414B821CF424C21CF4248246F1248346F1248213D424B841C2821F44CA821F45E328F1412696F2412423D941B292D441B292C4242F19C6242F5964422F1934242F11B424D812B424C9414F22CD414F226962
:80288000144F3269144F2239414D921B242CF941A42CF941348E121F6462291F4432921D242B491D242B494CB292C6242F4964422B4943B212B424F8D3A3000020020000000020040011000000822001210000000022100400000020040011000000820010020000480022100400000020040011000080220812100200000020024100C0C3
:80290000CFD32C0800000000000000000000000000000000000000000000000000001220010000000000000000800100000000000000000000000000000000000000145F8B02880000000000000000000000000000000000000000000000000000000000000000200100000000000000000000000000000000000000000000001194D303A9
:80298000002200000000004200100100002008121002000000200241000000004200108101180020081210020000002002410000000042001001000020081210020000002002410000F03336000000000000000000000000000000000000000000000000000000000000000000200100000018000000000000000000000000000000000084
:802A00000000006C366A0000000000000000000000000000000000000000000000001200000000200112000000000000000000200200000000000000000000000000000000004F2C060000000000000000000000000000000000000000000000120020011200000000000018200118000000000000000000000000000000000000000000CC
:802A800000C09FD3010000000000000000000000000000000000000000000080011880011800008001180000001800120000000080020000000000000000000000000000000000AFBC0300000000000000000000000000000000000000000000000000000000000000000012000000000000000000000000000000000000000000000000AC
:802B00002C3E580000000000000000000000000000000000000000000000000080020000000020018021010000000000000000000000000000000000000000000000005FE60200000000002001000000000000000000000000000000000000000000001200000000000000000000000000000000000000000000000000000000C01D3303C1
:802B800000000000000000000000000000000000000000000000000012000000000080010000000000000000000000000000000000000000000000000000F01B1200000000008001000000000000000000000000000000000000002800008001000000A01100000000000000000000000000000000000000000000000040327D82000000D9
:802C000000000000000000000000000000000000000000000018000000000080810100000000000000000000000000000000000000000000000000003FE9080000000000000000000000000000000000000000000000000080010000000012001200000012000000000000000000000000000000000000000000C031F3040000000000006B
:802C800000000000000000000000000000000000000000000000808101001800000000000000000000000000000000000000000000000000002FA5890800000000000000000000000000000000000000000000000000000000001800000000000000000000000000000000000000000000000000000080383800000000000000000000004D
:802D00000000000000000000000000000000002001000000000000000000000000000000000000000000000000000000000000F046840000820000000000000000000000000000000000000000000000000000000020010000001A01120000000000000000000000000000000000000000009061310000200800000000000000000000005E
:802D80000000000000000000000000800100001212000000000000000000000000000000000000000000000000000000001DCE0000000000000000000000000000000000000000000000000000800100000000800100000000000000000000000000000000000000000000000000DC190E82000000000000000000000000000000000000BC
:802E0000000000000000000000000000000000001800000000000000000000000000000000000000000000F03F6A88000022000000000042001001000020081210020000002002410000001A014200100100001282200121000000002210040000002004001100000082200121000000002210040044230A82000000000000000000000059
:802E800000000000000000000000000000001A01000080011A010000000000000000000000000000000000000000000000000040011F910B8800000000000000000000000000000000000000000000000012001812008021812101000000181820010000000000000000000000000000000000000000005C3F2C00000000000000000000FF
:802F000000000000000000000000000000001200000000001200001A0100001812000000000000000000000000000000000000000000009DFC000000000000000000000000000000000000000000000000000000000000000000000000000000000000000000000000000000000000000000004C15040000000000000000000000000000EA
:802F8000000000000000000000A0111800000000001AA111001800008001000000000000000000000000000000000000000000005F28070028222002000000484220441101110080288821493212100200002822444302410000181A2405421411100100989AA1119224230121000080224234241004000048422044110111008028882130
:803000004932121002000028224443024100EC3F6C008002000000008004001400000088800124000000002840040000001A810500140000001AA9111840020000181A012840040000008004001400000088800124000000002840040000FBCC0000222800000000208404104101000082881218212400000020821244040000181252485D
:80308000801141018001189A812881114202008021012228414400000020840410410100008288121821240000002082124404007C3E350000000000000000000000000000000000000000000000000000120000200100000000000018000000000000000000000000000000000000000000D0D88D080000000000000000000000000000F4
:8031000000000000000000000000120000000080010000000000000000000000000000000000000000000000000000001D6C9393212B41282F11042F1124F21241222F11A4822D412AC9412E92142E9246E12229E42239412CB941C2921F44C2121F4462281F4422F9412423D941B292D441B292C4242F1944F49241222F1934242F11B46F
:8031800024D812B424C9414F2249F1249246F12492424F2239414D921B242CF941242CF1412486F24124921F4432921D242B491D242B494CF29241442F1924F2924143F212414B822D414B921CF42492144F2269144F2229F4249213D424B941C2921F44C2121F4462281F4422F9412423D941B292D441B292C4242B49442B49222B4943E1
:80320000B212B424F8645E142E12422E1213E622B141C2121B242CB14162281B24921B2423BD41B29294213B4919F29241F09241222F1934A42F19B434F812416B922D414F2249F1249246F12492424F2239614F22B945D224F941242CF1412486F24124921F4432D21F44B292D441B293D441F29241442F1924F2924143FA92414B832DD2
:80328000416B822D414F2249F1249246F13492424F2239614F22B945D224F941242CF1412486F24124921F4432D21F44B292D441B293D441F29241442F1924F2924143FA92414B832F11B426D912F42492144F2269144F2229F42492624F22B944D224E944C2124E248E9BD30800800200000000800400140000008880012400000000289D
:80330000400400000080040014000000888001240000000028400400000080040014000000888001240000000028400400701E83080000000000000000000000000000000000000000000000000000000000000000000000000000000000000000000000000000000000000000007C3E1F200800000000000000000000000000000000008D
:80338000000000000012200112000000001212008001000000000000000000000000000000000000000000000040011FCB0500280000000000480040010000800818400200000080024400000018800518400100008088810124200100008002440000000048004001000080081840020000008002440000C01E830F00000000000000002E
:8034000000000000000000000000000000000000000000000020010000000000000000000000000000000000000000000000000000003F33020000100100000000000000000000000000000000000040040000000000000000000000001200008001000000000000000000000000000000000000C0F11309000000212001000000000000C0
:8034800000000000800100000000001200801104400400A0182800120000800100000000000020014100000000000000000040020000000000E7C300000011100212000000000000000000000012000000000020110440044004008008002001000000180000001800000044000000000000000000002100000000002C3D8700000000006D
:8035000000000000000000000000000000000000000000120000000018220000000012000000000000001200000000000000000000000000000000F0E45B000000000000000000000000000000000000000000000000002001000020010000001200000000000000000000000000000000000000000000001100CC39220000000000000020
:80358000000000000000000000000000000000000000000000000080010000000000000000000000000000000000000000000000000000701A0F0000000000000000000000000000000000000000000000000000000000000000000000001200000000000000000000000000000000000021001100DC2B0200000000000000000000000064
:803600000000000000000000000000008001000000008001001200000012000000000000000000000000000000000000210000007F8786080000000000000000000000000000000000000000000000000000000012000012120000000000000000000000000000000000000000000000000040356300000000000000000000000000000061
:8036800000000000000000000000000000000000000000000000000000000000000000000000000000000000000000474500000000000000000000000000000000000000000000001800800100000000001820010000000000008001120000000000000000000000000000000000BC33F78200000000000000000000000000000000000071
:80370000000000000000000000000000000000000000000000000000000000000000000000000000000000F0E71F00000000000000000000000000000000000000000000000000000000000000000020010000000000000000000000000000000000000000000000C0E2830500000000000000000000000000000000000000000000000008
:80378000000000000000000000008001000000000000000000000000000000000000000000005FF80C00000000000000000000000000000000000000000000000000000000000080010000000000000000000000000000000000000000000000000000FC140A000000000000000000000000000000000000000000000080010000000000C9
:80380000000018000000000000001818000000000000000000000000000000000070190788000000000000000000000000000000000000000000000000000000000000002001000000000000000000000000000000000000000000000000119C353B82008002000000008004001400000088800124000000002840040000008004001400DD
:803880001800A0818001240018000080024400000000480040010000800818400200000080024400001F2509880000000000000000000000000000000000000000000018000000000000008001180000800100000000180000000000000000000000000000000000114C359920080000000000000000000000000000000000000000000069
:8039000080011200000000001818000000000000000080010000000000000000000000000000000014F07D5100000000000000000000000000000000000000000000000000000000001200000012180012000000008021010000000000000000000000000000000000EC3316000000000000000000000000000000000000000000000018F4
:80398000800118000000000000002001120000000000000000000000000000000000000000000000F03D2B0000000000000000000000000000000000000000000000181880A11118000080210180A111001A210112121812000000001A210100000000000000000000000000001400009C351E00A0228002000000A04480041501140000B6
:803A00008A081A092D1240020000A022D0440244002021A1115A25A141501140011A01A0881AA19150221AE1218181A11100A022D04402440000004A04485011400100A088A091D02201240000002A024D244004003FA50D0020020000000020040011000000822001210000000022100400001218124212121001802101A0181212108283
:803A800021810118120022100480A111120020040011000000822001210000000022101401002C346200800222000000004820041410010080088A0116022100000028604210040018001A85A114400111A01100881AA11840A2112120A1110080022604410000004820041410010080088A011602210000002860421004004D84000000F5
:803B000000000000000000000000000000000000000000000000000000000000000000002001000000000000000000000000000000000000000000C085F32C08000000000000000000000000000000000000000000000000000000000000000000000000000020010000000000000000000000000000000000F0F3CA142E12422E1213C43D
:803B8000121B242CB141C2121B2486B24122B941329219B29294212B49282F19042F1924F2924143F212414B822D414B921CF42492144F2269144F2229F4249213D424B941C2921F44C2121F4462281F4422F9412423D941B292D441B292C4242F1944F49241222F1934242F11B424D812B424C9414F2249F1249246F12492424F2239417D
:803C00004D921B242CF941242CF1412486F24124921F4432921D242B491D242B494CF29241442F1924F2924143F212414B822D414B921CF42492144F2269144F2229F42492424D924AC2924E242CE144E248365E19B21284F21261282F1124F21241222F11A4822D412AC9412ED21CE42269142E9346E12239412CB941C2921F44CA921F6C
:803C800044E328F1412696F2412423D941B292D441B292C4242F19C6242F5964422F1934242F11B424D812B424C8414F22CC414F2268144F3269144F2239514D921B242CF941A42CF8413486F2413686F2412423D841B292D441B292C4242F19C6242F5964422F1934242F11B424D812B424C9414F22CD414F2269144F3269144F2239419F
:803D00004D921B242CF941A42CF941348E121F6462291F4432921D242B491D242B494CB292C6242F4964422B4943B212B424F89739000020020000000020040011000000822001210000000022100400000020040011000000822001210028000020024100000000420010010000200812100200000020024100111C34D182000000000004
:803D80000000000000000000002800000000000000000000000000008001000000000000000000000000000000000000000000000000000000F031598008000000000000000000000000000000000000000000000000000000000000000000000000000000000000000000000000000000000000000011FC3B610020020000000020040029
:803E00001100000082200121000000002210040000002004001100008021081210020000002002410000000042001001000020081210020000002002410040014EC800000000000000000000000000000022000000000000000000000000000000000000000000000000000000000000000000000000000000000000C0E4830A0000000026
:803E80000000000000000000000000000000000000000000000000000000000000000000000000000000000000000000000000000000000000705404000000000000000000000000000000000000000000000000002001000000000000000000000000000000000000000000000000000000000000005C39C1000000000000000000000083
:803F00000000000000000000000000000000000000000000000000000000000000000000000000000000000000000000000000474500000000000000000000000000000000000000000000000000800100000000000000000000000000000000000000000000000000000000000000803594000000000000000000000000000000000000EB
:803F8000000000000000000000000000000000000000000000000000000000000000000000000000000000004745000000000000000000000000000000000000000000000000000000000000000000000000000000000000000000000000000000000000000000004C150400000000000000000000000000000000000000000000000000D0
:804000000080010000000000000000000000000000000000000000000000000000000000001C0C000000000000000000000000000000000000000000000000000000000000000000000000000000000000000000000000000000000000000000C0544100000000000000000000000000000000000000000000000000000012000000000030
:8040800000000000000000000000000000000000000000000000000000E0B90F000000000000000000000000000000000000000000000000000000000000000000000000000000000000000000000000000000000000000000C0544100000000000000000000000000000000000000000000000000000000000000000000000000000000C3
:804100000000000000000000000000000000000000004745000000000000000000000000000000000000000000000000000000000000000000000000000000000000000000000000000000000000000000004C150400000000000000000000000000000000000000000000000000000000000000000000000000000000000000000000004E
:8041800000000000000000000000705484080000000000000000000000000000000000000000000000000000000000000000000000000000000000000000000000000000000000000000007C3E1F00000082000000000000000000000000000000000000000000000000000000000000000000000000000000000000000000000000000014
:8042000000000000706902000000000000000000000000000000000000000000000000000000000000000000000000000000000000000000000000000000000000000000C054410000000000000000000000000000000000000000000000000000000000000000000000000000000000000000000000000000000000000000000047450082
:804280000020020000000020040011000000822001210000000022100400000020040011000000822001210000000022100400000020040011000000822001210000000022100400EC11038200000000000000000000000000000000000000000000000000000000000000000000000000000000000000000000000000000000000000008D
:8043000000EF1E0A000000000000000000000000000000000000000000000000000000000000000000000000000000000000000000000000000000000000000000C054410000000000000000000000000000000000000000000000000000000000000000000000000000000000000000000000000000000000000000000047450000000045
:804380000000000000000000000000000000000000000000000000000000000000000000000000000000000000000000000000000000000000004C150400000000000000000000000000000000000000000000000000000000000000000000000000000000000000000000000000000000000000000070540400282220020000004842207A
:804400004411011100802888214932121002000028224443024100008024044214111001008882189224230121000080224234241004000048422044110111008028882149321210020000282244430241008C318B008002000000008004001400000088800124000000002840040000008004001400000088800124000000002840040003
:80448000000080040014000000888001240000000028400400002F620A00208202000000004248001114000020882881114202000000222841440000002084041041010000828812182124000000208212440400000042480011140000208828811142020000002228414400C028C3060000000000000000000000000000000000000000E4
:8045000000000000000000000000000000000000000000000000000000000000000000000000000000705484080000000000000000000000000000000000000000000000000000000000000000000000000000000000000000000000000000000000000000001D26F39D212B41282F11042F1124F21241222F11A4822D412AC9412E921478
:804580002E9246E12229E42239412CB941C2921F44C2121F4462281F4422F9412423D941B292D441B292C4242F1944F49241222F1934242F11B424D812B424C9414F2249F1249246F12492424F2239414D921B242CF941242CF1412486F24124921F4432921D242B491D242B494CF29241442F1924F2924143F212414B822D414B921CF4F2
:804600002492144F2269144F2229F4249213D424B941C2921F44C2121F4462281F4422F9412423D941B292D441B292C4242B49442B49222B4943B212B424F8645E142E12422E1213E622B141C2121B242CB14162281B24921B2423BD41B29294213B4919F29241F09241222F1934A42F19B434F812416B922D414F2249F1249246F124925E
:80468000424F2239614F22B945D224F941242CF1412486F24124921F4432D21F44B292D441B293D441F29241442F1924F2924143FA92414B832F11B426D912F42492144F2269144F2229F4249213F624925B244D921F44C2121F4462281F4422F9412423FD41242B491D243B491D242F1944F49241222F1934A42F19B434F812416B922DD2
:80470000414F2249F1249246F12492424F2229F624924B244D924E242CE144E28835FB000028000000000048004001000080081840020000008002440000000048004001000080081840020000008002440000000048004001000080081840020000008002440000E7310000000000000000000000000000000000000000000000000000A4
:8047800000000000000000000000000000000000000000000000000000000000000000004C150482000000000000000000000000000000000000000000000000000000000000000000000000000000000000000000000000000000000000000014F0BF61008002000000008004001400000088800124000000002840040000008004001463
:80480000000000888001240000000028400400000080040014000000888001240000000028400400007C37E2000000000000000000000000000000000000000000000000000000000000000000000000000000000000000000000000000000000000000000004745000000000000000000000000000000000000000000000000000000004D
:804880000000000000000000000000000000000000000000000000000000000000004C1504000000000000000000000000000000000000000000000000000000000000000000000000000000000040020000000000000000000000000000007F4D0C0000000000000000000000000000000000000000000000000000000000000000000039
:804900000000000000000040020000000000000000000000000000005C3DA500000000000000000000000000000000000000000000000000000000000000000000000000000000000000000000000000000000000000000000474500000000000000000000000000000000000000000000000000000000000000000000000000000000002B
:8049800000000000000000000000000000000000004C15040000000000000000000000000000000000000000000000000000000000000000000000000000000000000000000000000000000000000000007054040000000000000000000000000000000000000000000000000000000000000000000000000000000000000000000000008A
:804A0000000000000000000000C05441000000000000000000000000000000000000000000000000000000000000000000000000000000000000000000000000000000000000000000004745000000000000000000000000000000000000000000000000000000000000000000000000000000000000000000000000000000000000000055
:804A800000004C1504000000000000000000000000000000000000000000000000000000000000000000000000000000000000000000000000000000000000000000705404000000000000000000000000000000000000000000000000000000000000000000000000000000000000000000000000000000000000000000C0544100000034
:804B0000000000000000000000000000000000000000000000000000000000000000000000000000000000000000000000000000000000000000004745000000000000000000000000000000000000000000000000000000000000000000000000000000000000000000000000000000000000000000004C1524080000000000000000001C
:804B8000000000000000000000000000000000000000000000000000000000000000000000000000000000000000000000000040F126DF000000000000000000000000000000000000000000000000000000000000000000000000000000000000000000000000000000000000000000004C1504000000000000000000000000000000001A
:804C00000000000000000000000000000000000000000000000000000000000000000000000000000000000000705404000000000000000000000000000000000000000000000000000000000000000000000000000000000000000000000000000000000000000000C0544100002800000000004800400100008008184002000000800202
:804C8000440000000048004001000080081840020000008002440000000048004001000080081840020000008002440000E7318008000000000000000000000000000000000000000000000000000000000000000000000000000000000000000000000000000000000000000011FC3B6100000000000000000000000000000000000000C5
:804D00000000000000000000000000000000000000000000000000000000000000000000000000000000004745000000000000000000000000000000000000000000000000000000000000000000000000000000000000000000000000000000000000000000004C1504000000000000000000000000000000000000000000000000000042
:804D800000000000000000000000000000000000000000000000000000000000000000705404000000000000000000000000000000000000000000000000000000000000000000000000000000000000000000000000000000000000000000C0544120082A0228000000004A04485011400100A088A091D02201240000002A024D24400491
:804E00000000A044800415011400008A081A092D1240020000A022D04402440000004A04485011400100A088A091D02201240000002A024D244004002FEA020020020000000020040011000000822001210000000022100400000020040011000000822001210000000022100400000020040011000000822001210000000022100400C03B
:804E800022630A82800222000000004820041410010080088A0116022100000028604210040000800442400111000088A01860211002000080022604410000004820041410010080088A011602210000002860421004002F990C000000000000000000000000000000000000000000000000000000000000000000000000000000000000DB
:804F0000000000000000000000000000000000C0544100000000000000000000000000000000000000000000000000000000000000000000000000000000000000000000000000000000000000000040F195C4142E12422E1213C4121B242CB141C2121B2486B24122B941329219B29294212B49282F19042F1924F2924143F212414B824A
:804F80002D414B921CF42492144F2269144F2229F4249213D424B941C2921F44C2121F4462281F4422F9412423D941B292D441B292C4242F1944F49241222F1934242F11B424D812B424C9414F2249F1249246F12492424F2239414D921B242CF941242CF1412486F24124921F4432921D242B491D242B494CF29241442F1924F2924143D1
:80500000F212414B822D414B921CF42492144F2269144F2229F42492424D924AC2924E242CE144E248365E19B21284F21261282F1124F21241222F11A4822D412AC9412ED21CE42269142E9346E12239412CB941C2921F44CA921F44E328F1412696F2412423D941B292D441B292C4242F19C6242F5964422F1934242F11B424D812B4241B
:80508000C9414F22CD414F2269144F3269144F2239414D921B242CF941A42CF941348E121F6462291F4432921D242B491D242B494CF292614CF2924526F4924143F212414B822D414B921CF424D21CF4249246F1249346F1249213D424B941C2921F44CA921F44E328F1412696F2412423D941B292D441B292C4242B694CF2924426B49234
:8051000034242B414B828FB50F8800200200000000200400110000008220012100000000221004000000200400110000008220012100000000221004000000200400110000008220012100000000221004004C3AA6820000000000000000000000000000000000000000000000000000000000000000000000000000000000000000000066
:805180000000000000000000000000146FF20D88000000000000000000000000000000000000000000000000000000002001000000000000000000000000000000000000000000000000000000115C314E20082200000000004200100100002008121002000000200241000000004200100100002008121002000000200241000000004208
:80520000001001000020081210020000002002410000F0CD4700000000000000000000000000000000000000000000000000000000001800000000000000000000000000000000000000000000000000000000C0FBB3070000000000000000000000000000000000000000000000000000220000000000000000200100000000000000009A
:8052800000000000000000000000000000F0691400000000000000000000000000000000000000000000000000000000000000200200000000000000000000000000000000000000000000000000C07A230B000000000000000000000000000000000000000000000000000022000000000000000080010000000000000000000000000014
:805300000000000000000000F0B35E00000000000000000000000000000000000000000000000000000000000000280000000000000000000000000000000000000000000000000000C06283010000000000000000000000000000000000000000000000000000000000400800000000000000000000000000000000000000000000000016
:80538000000000EF7E03000000000000000000000000000000000000000000000000000000000000000000000000000000000000000000000000000000000000000000C0544100000000000000000000000000000000000000000000000010040000000000000000000000000000000000000000000000000000000000000000F015F300DC
:80540000000000000000000000000000000000000000000000000000410000000000000000000000000000000000000000000000000000000000000000C01E430C000000000000000000000000000000000000000000000000000000000010080000000000000000000000000000000000000000000000000000006F7E0B000000000000AE
:80548000000000000000000000000000000000000000000000000000000000000000000000000000000000000000000000000000000000C054410000000000000000000000000000000000000000000000000000000000000000000000000000000000000000000000000000000000000000000047450000000000000000000000000000CB
:8055000000000000000000000000000000000000000000000000000000000000000000000000000000000000000000004C150400000000000000000000000000000000000000000000000000000000000000000000000000000000000000000000000000000000000000000070548408000000000000000000000000000000000000000076
:80558000000000000000000000000000000000000000000000000000000000000000000000000000007C3E1F0000000000000000000000000000000000000000000000000000000000000000000000000000000000000000000000000000000000000000000047450000000000000000000000000000000000000000000000000000000046
:805600000000000000000000000000000000000000000000000000000000000000004C15040000000000000000000000000000000000000000000000000000000000000000000000000000000000000000000000000000000000000000007054040000221004000000200481100100002008121002000000200241000000004210081100F7
:805680000000822001210000000022100400000020048110010000200812100200000020024100C02D330A82000000000000000000000000000000000000000000000000000000000000000000000000000000000000000000000000000000000000000000EF1E0A0000000000000000000000000000000000000000000000000000000088
:805700000000000000000000000000000000000000000000000000000000000000C0544100000000000000000000000000000000000000000000000000000000000000000000000000000000000000000000000000000000000000000000474500000000000000000000000000000000000000000000000000000000000000000000000048
:80578000000000000000000000000000000000000000000000004C15040000000000000000000000000000000000000000000000000000000000000000000000000000000000000000000000000000000000004011010014CEFD0080224234241004000048428483441109110080288821493212100200002822444302410000802444389F
:8058000048149110010088821892242301210000802242342410040000484284834411091100802888214932121002000028225447121004C06FA30C00284004000000800484400100008008184002000000800244000000004840081400000088800124000000002840040000008004844001000080081840020000008002440000F03633
:805880002E0000222841440000002084144818410100008288121821240000002082124404000000424881841114000020882881114202000000222841440000002084144818410100008288121821240000002082124404001D7D6301000000000000000000000000000000000000000000000000000000000000000000000000000000E6
:8059000000000000000000000000000000000000000070548408000000000000000000000000000000000000000000000000000000000000000000000000000000000000000000000000000000000000140000C01AC3DD41F212484CF21249442F9124F2124943F212494B822D494B929CF42492944F2269144F2239484F2239494D929BD7
:80598000242CF949242CF1492486F24924929F4432929D242B491D242F89C4242F9944F49249222F9934242F91B424D892B424C9494F2249F9249246F1249283F4249293D424B949C2929F44C2129F4462289F4422F9492423D949B292D441F292484CF29249442F9924F2924943F212494B822D494B929CF42492944F2269144F2239484D
:805A00004F2239494D929B242CF949242CF1492486F24924929F4432929D242B491D242F89C4242F8944F49248222F8934242F81B424F8C26B144F2231484F2231694F22B14DD224F149242CF1492486F24924929F4432D29F44B29AD449F293481D242F9944F49249222F9934A42F99B434F812496B922D494F2249F9249246F1249283A2
:805A8000F4249293F62492DB244D929F44C2129F4462289F4422F9492423FD4924AB499D243F89D441F29249442F9924F2924943FA92494B832F91B426D992F42492944F2269144F2239484F2239694F22B94DD224F949242CF1492486F24924929F4432D29F44B29AD449F293481D242F9944F49249222F9934A42F99B434F812496B9299
:805B00002D494F2249F9249246F1249283F4249283F62492CB244D928F44C2128F44E2983DE60000284004000000800484400100008008184002000000800244000000004840081400000088800124000000002840040000008004844009000080081840020000008002440014E0FB04000000000000000000000000000000000000000092
:805B800000000000000000000000000000000000000000000000000000000000000000000000000000C05441200800000000000000000000000000800200000000000000000000000000000000000000000000000000000000000000000000000000001400140014B0CE0A0028400400000080048440010000800818408202000000284061
:805C000004000000800484400100008008184002000000800244000000004840081400000088800124000000001C0244140010C1AF910000000000000000000000000000000000000000000000000000000000000000000000000000000000000000000000000000000000000000000047450000001100000000000000000000000000003A
:805C80000000100400000000120000000000000018000000000000000000000000000000000000000000000000008C3233000020110200000000000000000000000000001200000020018001000012000000000000000020080000001200000040040000000000000000001002000000AB120000001301000000000000000000000000001B
:805D000000180010040020011800120020010000000080010000880000000012000000100400000000000000000024000000C02E930800001002000000000000000000000000000000000000000000000000000000000000000000000000000000000000000000000000000000000000DF3408000000000000000000000000000000000082
:805D8000000000000000100800000000180000000000000000200100000000000000000000000000004002000000C031F3040000000000000000000000000000000000000000000000000000000000000000000000000000000000000000000000000000000000000000007054040000000000000000000000000000000000000000000060
:805E000000000000000000000000000000440000000000000000000000400200840000000000000000AC3A9D00000000000000000000000000000000000000000000001008000000008001000000000040040012000000000000000000400200810000004002000000B02D07000000000000000000000000000000000000000000000000BD
:805E8000000000000000000000000000000000000000000000000000000000000000000000C054410000000000000000000000000000000000000000000000000000000000000000000000000000000000000000000000000000000000000000000047450000000000000000000000000000000000000000000000000000000000000000C1
:805F000000000000000000000000000000000000000000000000000000004C1504000000000000000000000000000000000000000000000000000000000000000000000000000000000000000000000000000000000000000000705404000000000000000000000000000000000000000000000000000000000000000000000000000000F4
:805F8000000000000000000000000000000000000000C0544182000000000000000000000000000000000000000000000000000000000000000000000000000000000000000000000000000000000000000000146FF20D00000000000000000000000000000000000000000000000000000000000000000000000000000000000000000048
:80600000000000000000000000000000C0544100000000000000000000000000000000000000000000000000000000000000000000000000000000000000000000000000000000000000000000474500000000000000000000000000000000000000000000000000000000000000000000000000000000000000000000000000000000003F
:8060800000000000004C150400800244000000004840081400000088800124000000002840040000008004844001000080081840020000008002440000000048400814000000888001240000000028400400F02DA38008000000000000000000000000000000000000000000000000000000000000000000000000000000000000000000C2
:80610000000000000000000000000011FC3B610000000000000000000000000000000000000000000000000000000000000000000000000000000000000000000000000000000000000000000047450000000000000000000000000000000000000000000000000000000000000000000000000000000000000000000000000000000000EA
:8061800000000000004C1504000000000000000000000000000000000000000000000000000000000000000000000000000000000000000000000000000000000000000000705404000000000000000000000000000000000000000000000000000000000000000000000000000000000000000000000000000000000000000000C054411D
:8062000000A022D04402440000004A048D485091400100A088A091D02201240000002A024D2440040000A044D0880415091400008A081A092D1240020000A022D04402440000004A048D485091400100A088A091D02201240000002A024D244004003FCC0C002002410000000042100811000000822001210000000022100400000020040F
:80628000811001000020081210020000002002410000000042100811000000822001210000000022100400C036E302002860421004000080044608850111000088A0186021100200008002260441000000486084501810010080088A011602210000002860421004000080044608850111000088A018602110020000800226044100F0BC72
:80630000D6000000000000000000000000000000000000000000000000000000000000000000000000000000000000000000000000000000000000000000004C1524080000000000000000000000000000000000000000000000000000000000000000000000000000000000000000000000000000000000000000007FFE41F1241283F45E
:80638000241293D424B149C2129F44C2129F4462289F4422F9492423D949B292D441F292484CF29249442F9924F2924943F212494B822D494B929CF42492944F2269144F2239484F2239494D929B242CF949242CF1492486F24924929F4432929D242B491D242F89C4242F9944F49249222F9934242F91B424D892B424C9494F2249F924D4
:806400009246F1249283F4249293D424B949C2929F44C2129F4462289F4422F9492423D949B292D441F292484CF29249442F9924F2924943F212494B822D494B929CF42492944F2269144F2239484F2239484D928B242CF948242CF148248EC2B3D641F212484CF212694CF2124D26F4124943F212494B822D494B929CF424D29CF4249AC7
:8064800046F9249387144F2239494D929B242CF949A42CF949348E129F6462299F4432929D242B491D242F89C4242F99C6242FD964422F9934242F91B424D892B424C9494F22CD494FA269944F327948F1249293D424B949C2929F44CA929F44E328F1492696F2492423D949B292D441F292484CF292694CF2924D26F4924943F212494B1E
:80650000822D494B929CF424D29CF4249A46F9249387144F2239494D929B242CF949A42CF949348E129F6462299F4432929D242B491D242F89C4242F89C6242FC964422F8934242F81B424F8D9E600002002410000000042100811000000822001210000000022100441000000421008110000008220012100000000221004000000200490
:80658000811001000020081210020000001222100410C189B3040000000000000000000000000000000000000000000000000000000000000000000000000000000000000000000000000000000000000000007054048800000000000000000000000000000000000000000000000000000000000000000000000000000000000000000014
:80660000000000000000000000000010C1BF13060022100400000020048110010000200812100200000020024100000000421008110000008220012100000000221004000000200481100100002008121002000000200241004001EFDA02000000000000000000000000000000000000000000000000000000000000000000000000000000
:8066800000000000000000000000000000000000000000C0544100000000000000000000000000000000000000000000000000000000000000000000000000000000000000000000000000000000000000000000474500000000000000000000000000000000000000000000000000000000000000000000000000000000000000000000B9
:806700000000000000000000000000004C15040000000000000000000000000000000000000000000000000000000000000000000000000000000000000000000000000000000000000000007054040000000000000000000000000000000000000000000000000000000000000000000000000000000000000000000000000000000000EC
:8067800000000000C05441000000000000000000000000000000000000000000000000000000000000000000000000000000000000000000000000000000000000000000004745000000000000000000000000000000000000000000000000000000000000000000000000000000000000000000000000000000000000000000004C150453
:80680000000000000000000000000000000000000000000000000000000000000000000000000000000000000000000000000000000000000000000000705404000000000000000000000000000000000000000000000000000000000000000000000000000000000000000000000000000000000000000000C054410000000000000000FB
:8068800000000000000000000000000000000000000000000000000000000000000000000000000000000000000000000000000000004745000000000000000000000000000000000000000000000000000000000000000000000000000000000000000000000000000000000000000000004C1504000000000000000000000000000000A7
:80690000000000000000000000000000000000000000000000000000000000000000000000000000000000000000705404000000000000000000000000000000000000000000000000000000000000000000000000000000000000000000000000000000000000000000C054410000000000000000000000000000000000000000000000FA
:806980000000000000000000000000000000000000000000000000000000000000000000000000474588000000000000000000000000000000000000000000000000000000000000000000000000000000000000000000000000000000000000000000D06132DF000000000000000000000000000000000000000000000000000000000041
:806A00000000000000000000000000000000000000000000000000000000110000F0A9C7000000000000000000000000000000000000000000000000000000000000000000000000000000000000000000000000000000000000000000004C1504000000000000000000000000000000000000000000000000000000000000000000000040
:806A80000000000000000000000000000000000000000000000070540400002210040000002004811001000020081210020000002002410000000042100811000000822001210000000022100400000020048110010000200812100200000020024100D0C13E6320080000000000000000000000000000000000000000000000000000000F
:806B0000000000000000000000000000000000000000000000000000000000004001FF1B06000000000000000000000000000000000000000000000000000000000000000000000000000000000000000000000000000000000000000000C0544100000000000000000000000000000000000000000000000000000000000000000000005F
:806B80000000000000000000000000000000000000000000000000474500000000000000000000000000000000000000000000000000000000000000000000000000000000000000000000000000000000000000001100C0594309000000000000000000000000000000000000000000000000000000000000000000000000000000000093
:806C00000000000000000000000000000040010040F1913800802242342410040000484284834411091100802888214932121002000028224443024100008024443848149110010088821892242301210000802242342410040000484284834411091100802888214932121002000028225443121104C033F309002840040000008004849F
:806C8000400100008008184002000000800244000000004840081400000088800124000000002840040000008004844001000080081840020000008002440000F0362E00002228414400000020841448184101000082881218212400000020821244040000004248818411140000208828811142020000002228414400000020841448184A
:806D0000410100008288121821240000002082124404001D7D63010000000000000000000000000000000000000000000000000000000000000000000000000000000000000000000000000000000000000000007054840800000000000000000000000000000000000000000000000000000000000000000000000000000000000000000E
:806D8000000000000000000000000000007C3E1F1D242F81C4242F9144F41249222F9134242F91B424D892B424C9494F2249F9249246F1249283F4249293D424B949C2929F44C2129F4462289F4422F9492423D949B292D441F292484CF29249442F9924F2924943F212494B822D494B929CF42492944F2269144F2239484F2239494D92B9
:806E00009B242CF949242CF1492486F24924929F4432929D242B491D242F89C4242F9944F49249222F9934242F91B424D892B424C9494F2249F9249246F1249283F4249293D424B949C2929F44C2129F4462289F4422F9492423D949B292D441F292484CF29248442F8924F2924843F212484B822FBC46F1241283F4241293F62412DB247A
:806E80004D129F44C2129F4462289F4422F9492423FD4924AB499D243F89D441F29249442F9924F2924943FA92494B832F91B426D992F42492944F2269144F2239484F2239694F22B94DD224F949242CF1492486F24924929F4432D29F44B29AD449F293481D242F9944F49249222F9934A42F99B434F812496B922D494F2249F9249246C8
:806F0000F1249283F4249293F62492DB244D929F44C2129F4462289F4422F9492423FD4924AB499D243F89D441F29249442F9924F2924943FA92494B832F91B426D992F42492944F2269144F2239484F2239684F22B94CD224F948242CF148248ED9630E008002440000000048400814000000888001240000000028400400000080048450
:806F8000400100008008184002000000800244000000004840081400000088800124000000002840044001CF3706000000000000000000000000000000000000000000000000000000000000000000000000000000000000000000000000000000000000000000C054412008000000000000000000000000000000000000000000000000A1
:80700000000000000000000000000000000000000000000000000000000000000000141440012F1A030028400400000080048440010000800818400200000080024400000000484008140000008880012400000000284004000000800484400100008008184002000000800244140010C1FF830E000000000000000000000000000000005B
:807080000000000000000000000000000000000000000000000000000000000000000000000000000000001001005F890C00000000000000000000000000000000000000000000000000000000000022000000000000000000000000000000000000000000000000000000CC3BCA0000000000000000000000000000000000000000000098
:80710000000000000000000000000000000000000000000000000021000000000000000000000000F04F7700000000000000000000000000000000000000000000000000000000000020020000000000000000000000000000000000000000000000000000C0BCA30C000000000000000000000000000000000000000000000000000000EB
:8071800000000000000000000000000000000000001002000000000000000000000000FF7407000000000000000000000000000000000000000000000000000000000000000000000000000000000000000000000000000000000000000000C0544100000000000000002001000000000000000000000084000000000000000000000040C9
:807200000400000000000000000000000000000000000000002100000000BF3D0F00000000000000000000000000000000001100000000000000000000000000000000000000000000000000000000000000000000000000000000BC140800000000000000000000000000000000100100001008000000000000000000000041000000008B
:80728000000000000000000000000000000000004002000000E0980D000000000000000018000000000000000000000000000000000000000000000000000000000000000000000000000000000000000000000000008C3CF300000000000000000000000000000000000000000000000000000000000000000000000000000000000000F4
:807300000000000000000000000000000000004745000000000000000000000000000000000000000000000000000000000000000000000000000000000000000000000000000000000000000000004C150400000000000000000000000000000000000000000000000000000000000000000000000000000000000000000000000000001C
:8073800000000000000000705404000000000000000000000000000000000000000000000000000000000000000000000000000000000000000000000000000000000000000000C0544182000000000000000000000000000000000000000000000000000000000000000000000000000000000000000000000000000000000000000000EE
:80740000146FF20D000000000000000000000000000000000000000000000000000000000000000000000000000000000000000000000000000000000000000000C0544100000000000000000000000000000000000000000000000000000000000000000000000000000000000000000000000000000000000000000000474500000000A9
:807480000000000000000000000000000000000000000000000000000000000000000000000000000000000000000000000000000000000000004C150400800244000000004840081400000088800124000000002840040000008004844001000080081840020000008002440000000048400814000000888001240000000028400400F006
:807500002DA38008000000000000000000000000000000000000000000000000000000000000000000000000000000000000000000000000000000000000000011FC3B61000000000000000000000000000000000000000000000000000000000000000000000000000000000000000000000000000000000000000000004745000000007E
:807580000000000000000000000000000000000000000000000000000000000000000000000000000000000000000000000000000000000000004C150400000000000000000000000000000000000000000000000000000000000000000000000000000000000000000000000000000000000000000070540400000000000000000000005E
:8076000000000000000000000000000000000000000000000000000000000000000000000000000000000000000000000000C0544100A022D04402440000004A048D485091400100A088A091D02201240000002A024D2440040000A044D0880415091400008A081A092D1240020000A022D04402440000004A048D485091400100A088A032
:8076800091D02201240000002A024D244004003FCC0C00200241000000004210081100000082200121000000002210040000002004811001000020081210020000002002410000000042100811000000822001210000000022100400C036E302002860421004000080044608850111000088A01860211002000080022604410000004860CE
